{
  "contractName": "NftFactory",
  "abi": [
    {
      "inputs": [],
      "stateMutability": "nonpayable",
      "type": "constructor"
    },
    {
      "anonymous": false,
      "inputs": [
        {
          "indexed": true,
          "internalType": "address",
          "name": "account",
          "type": "address"
        },
        {
          "indexed": true,
          "internalType": "address",
          "name": "operator",
          "type": "address"
        },
        {
          "indexed": false,
          "internalType": "bool",
          "name": "approved",
          "type": "bool"
        }
      ],
      "name": "ApprovalForAll",
      "type": "event"
    },
    {
      "anonymous": false,
      "inputs": [
        {
          "indexed": true,
          "internalType": "address",
          "name": "previousOwner",
          "type": "address"
        },
        {
          "indexed": true,
          "internalType": "address",
          "name": "newOwner",
          "type": "address"
        }
      ],
      "name": "OwnershipTransferred",
      "type": "event"
    },
    {
      "anonymous": false,
      "inputs": [
        {
          "indexed": true,
          "internalType": "address",
          "name": "operator",
          "type": "address"
        },
        {
          "indexed": true,
          "internalType": "address",
          "name": "from",
          "type": "address"
        },
        {
          "indexed": true,
          "internalType": "address",
          "name": "to",
          "type": "address"
        },
        {
          "indexed": false,
          "internalType": "uint256[]",
          "name": "ids",
          "type": "uint256[]"
        },
        {
          "indexed": false,
          "internalType": "uint256[]",
          "name": "values",
          "type": "uint256[]"
        }
      ],
      "name": "TransferBatch",
      "type": "event"
    },
    {
      "anonymous": false,
      "inputs": [
        {
          "indexed": true,
          "internalType": "address",
          "name": "operator",
          "type": "address"
        },
        {
          "indexed": true,
          "internalType": "address",
          "name": "from",
          "type": "address"
        },
        {
          "indexed": true,
          "internalType": "address",
          "name": "to",
          "type": "address"
        },
        {
          "indexed": false,
          "internalType": "uint256",
          "name": "id",
          "type": "uint256"
        },
        {
          "indexed": false,
          "internalType": "uint256",
          "name": "value",
          "type": "uint256"
        }
      ],
      "name": "TransferSingle",
      "type": "event"
    },
    {
      "anonymous": false,
      "inputs": [
        {
          "indexed": false,
          "internalType": "string",
          "name": "value",
          "type": "string"
        },
        {
          "indexed": true,
          "internalType": "uint256",
          "name": "id",
          "type": "uint256"
        }
      ],
      "name": "URI",
      "type": "event"
    },
    {
      "anonymous": false,
      "inputs": [
        {
          "indexed": false,
          "internalType": "string",
          "name": "msg",
          "type": "string"
        }
      ],
      "name": "contractfinalization",
      "type": "event"
    },
    {
      "inputs": [],
      "name": "IAEMBA",
      "outputs": [
        {
          "internalType": "uint256",
          "name": "",
          "type": "uint256"
        }
      ],
      "stateMutability": "view",
      "type": "function",
      "constant": true
    },
    {
      "inputs": [
        {
          "internalType": "address",
          "name": "account",
          "type": "address"
        },
        {
          "internalType": "uint256",
          "name": "id",
          "type": "uint256"
        }
      ],
      "name": "balanceOf",
      "outputs": [
        {
          "internalType": "uint256",
          "name": "",
          "type": "uint256"
        }
      ],
      "stateMutability": "view",
      "type": "function",
      "constant": true
    },
    {
      "inputs": [
        {
          "internalType": "address[]",
          "name": "accounts",
          "type": "address[]"
        },
        {
          "internalType": "uint256[]",
          "name": "ids",
          "type": "uint256[]"
        }
      ],
      "name": "balanceOfBatch",
      "outputs": [
        {
          "internalType": "uint256[]",
          "name": "",
          "type": "uint256[]"
        }
      ],
      "stateMutability": "view",
      "type": "function",
      "constant": true
    },
    {
      "inputs": [
        {
          "internalType": "address",
          "name": "account",
          "type": "address"
        },
        {
          "internalType": "address",
          "name": "operator",
          "type": "address"
        }
      ],
      "name": "isApprovedForAll",
      "outputs": [
        {
          "internalType": "bool",
          "name": "",
          "type": "bool"
        }
      ],
      "stateMutability": "view",
      "type": "function",
      "constant": true
    },
    {
      "inputs": [],
      "name": "name",
      "outputs": [
        {
          "internalType": "string",
          "name": "",
          "type": "string"
        }
      ],
      "stateMutability": "view",
      "type": "function",
      "constant": true
    },
    {
      "inputs": [],
      "name": "owner",
      "outputs": [
        {
          "internalType": "address",
          "name": "",
          "type": "address"
        }
      ],
      "stateMutability": "view",
      "type": "function",
      "constant": true
    },
    {
      "inputs": [],
      "name": "renounceOwnership",
      "outputs": [],
      "stateMutability": "nonpayable",
      "type": "function"
    },
    {
      "inputs": [
        {
          "internalType": "address",
          "name": "from",
          "type": "address"
        },
        {
          "internalType": "address",
          "name": "to",
          "type": "address"
        },
        {
          "internalType": "uint256[]",
          "name": "ids",
          "type": "uint256[]"
        },
        {
          "internalType": "uint256[]",
          "name": "amounts",
          "type": "uint256[]"
        },
        {
          "internalType": "bytes",
          "name": "data",
          "type": "bytes"
        }
      ],
      "name": "safeBatchTransferFrom",
      "outputs": [],
      "stateMutability": "nonpayable",
      "type": "function"
    },
    {
      "inputs": [
        {
          "internalType": "address",
          "name": "from",
          "type": "address"
        },
        {
          "internalType": "address",
          "name": "to",
          "type": "address"
        },
        {
          "internalType": "uint256",
          "name": "id",
          "type": "uint256"
        },
        {
          "internalType": "uint256",
          "name": "amount",
          "type": "uint256"
        },
        {
          "internalType": "bytes",
          "name": "data",
          "type": "bytes"
        }
      ],
      "name": "safeTransferFrom",
      "outputs": [],
      "stateMutability": "nonpayable",
      "type": "function"
    },
    {
      "inputs": [
        {
          "internalType": "address",
          "name": "operator",
          "type": "address"
        },
        {
          "internalType": "bool",
          "name": "approved",
          "type": "bool"
        }
      ],
      "name": "setApprovalForAll",
      "outputs": [],
      "stateMutability": "nonpayable",
      "type": "function"
    },
    {
      "inputs": [
        {
          "internalType": "bytes4",
          "name": "interfaceId",
          "type": "bytes4"
        }
      ],
      "name": "supportsInterface",
      "outputs": [
        {
          "internalType": "bool",
          "name": "",
          "type": "bool"
        }
      ],
      "stateMutability": "view",
      "type": "function",
      "constant": true
    },
    {
      "inputs": [],
      "name": "symbol",
      "outputs": [
        {
          "internalType": "string",
          "name": "",
          "type": "string"
        }
      ],
      "stateMutability": "view",
      "type": "function",
      "constant": true
    },
    {
      "inputs": [
        {
          "internalType": "address",
          "name": "newOwner",
          "type": "address"
        }
      ],
      "name": "transferOwnership",
      "outputs": [],
      "stateMutability": "nonpayable",
      "type": "function"
    },
    {
      "inputs": [
        {
          "internalType": "uint256",
          "name": "",
          "type": "uint256"
        }
      ],
      "name": "uri",
      "outputs": [
        {
          "internalType": "string",
          "name": "",
          "type": "string"
        }
      ],
      "stateMutability": "view",
      "type": "function",
      "constant": true
    },
    {
      "inputs": [
        {
          "internalType": "address",
          "name": "account",
          "type": "address"
        },
        {
          "internalType": "uint256",
          "name": "id",
          "type": "uint256"
        },
        {
          "internalType": "uint256",
          "name": "amount",
          "type": "uint256"
        }
      ],
      "name": "mint",
      "outputs": [],
      "stateMutability": "nonpayable",
      "type": "function"
    },
    {
      "inputs": [],
      "name": "finalize",
      "outputs": [],
      "stateMutability": "nonpayable",
      "type": "function"
    }
  ],
  "bytecode": "0x60806040526040518060400160405280600e81526020017f49414520446567726565204e46540000000000000000000000000000000000008152506004908051906020019062000051929190620006c2565b506040518060400160405280600681526020017f4941454e46540000000000000000000000000000000000000000000000000000815250600590805190602001906200009f929190620006c2565b50348015620000ad57600080fd5b506040518060600160405280602f815260200162003eb5602f9139620000d9816200012560201b60201c565b50620000fa620000ee6200014160201b60201c565b6200014960201b60201c565b6200011f3360006001604051806020016040528060008152506200020f60201b60201c565b62000e0d565b80600290805190602001906200013d929190620006c2565b5050565b600033905090565b6000600360009054906101000a900473ffffffffffffffffffffffffffffffffffffffff16905081600360006101000a81548173ffffffffffffffffffffffffffffffffffffffff021916908373ffffffffffffffffffffffffffffffffffffffff1602179055508173ffffffffffffffffffffffffffffffffffffffff168173ffffffffffffffffffffffffffffffffffffffff167f8be0079c531659141344cd1fd0a4f28419497f9722a3daafe3b4186f6b6457e060405160405180910390a35050565b600073ffffffffffffffffffffffffffffffffffffffff168473ffffffffffffffffffffffffffffffffffffffff16141562000282576040517f08c379a000000000000000000000000000000000000000000000000000000000815260040162000279906200099a565b60405180910390fd5b6000620002946200014160201b60201c565b9050620002cd81600087620002af88620003d460201b60201c565b620002c088620003d460201b60201c565b876200049d60201b60201c565b8260008086815260200190815260200160002060008773ffffffffffffffffffffffffffffffffffffffff1673ffffffffffffffffffffffffffffffffffffffff16815260200190815260200160002060008282546200032e919062000a2b565b925050819055508473ffffffffffffffffffffffffffffffffffffffff16600073ffffffffffffffffffffffffffffffffffffffff168273ffffffffffffffffffffffffffffffffffffffff167fc3d58168c5ae7397731d063d5bbf3d657854427343f4c083240f7aacaa2d0f628787604051620003ae929190620009bc565b60405180910390a4620003cd81600087878787620004a560201b60201c565b5050505050565b60606000600167ffffffffffffffff8111156200041a577f4e487b7100000000000000000000000000000000000000000000000000000000600052604160045260246000fd5b604051908082528060200260200182016040528015620004495781602001602082028036833780820191505090505b509050828160008151811062000488577f4e487b7100000000000000000000000000000000000000000000000000000000600052603260045260246000fd5b60200260200101818152505080915050919050565b505050505050565b620004d18473ffffffffffffffffffffffffffffffffffffffff16620006af60201b62000e841760201c565b15620006a7578373ffffffffffffffffffffffffffffffffffffffff1663f23a6e6187878686866040518663ffffffff1660e01b81526004016200051a959493929190620008ce565b602060405180830381600087803b1580156200053557600080fd5b505af19250505080156200056957506040513d601f19601f8201168201806040525081019062000566919062000789565b60015b6200061b576200057862000c21565b806308c379a01415620005dc57506200059062000d51565b806200059d5750620005de565b806040517f08c379a0000000000000000000000000000000000000000000000000000000008152600401620005d3919062000932565b60405180910390fd5b505b6040517f08c379a0000000000000000000000000000000000000000000000000000000008152600401620006129062000956565b60405180910390fd5b63f23a6e6160e01b7bffffffffffffffffffffffffffffffffffffffffffffffffffffffff1916817bffffffffffffffffffffffffffffffffffffffffffffffffffffffff191614620006a5576040517f08c379a00000000000000000000000000000000000000000000000000000000081526004016200069c9062000978565b60405180910390fd5b505b505050505050565b600080823b905060008111915050919050565b828054620006d09062000b28565b90600052602060002090601f016020900481019282620006f4576000855562000740565b82601f106200070f57805160ff191683800117855562000740565b8280016001018555821562000740579182015b828111156200073f57825182559160200191906001019062000722565b5b5090506200074f919062000753565b5090565b5b808211156200076e57600081600090555060010162000754565b5090565b600081519050620007838162000df3565b92915050565b6000602082840312156200079c57600080fd5b6000620007ac8482850162000772565b91505092915050565b620007c08162000a88565b82525050565b6000620007d382620009f3565b620007df818562000a09565b9350620007f181856020860162000af2565b620007fc8162000c46565b840191505092915050565b60006200081482620009fe565b62000820818562000a1a565b93506200083281856020860162000af2565b6200083d8162000c46565b840191505092915050565b60006200085760348362000a1a565b9150620008648262000c64565b604082019050919050565b60006200087e60288362000a1a565b91506200088b8262000cb3565b604082019050919050565b6000620008a560218362000a1a565b9150620008b28262000d02565b604082019050919050565b620008c88162000ae8565b82525050565b600060a082019050620008e56000830188620007b5565b620008f46020830187620007b5565b620009036040830186620008bd565b620009126060830185620008bd565b8181036080830152620009268184620007c6565b90509695505050505050565b600060208201905081810360008301526200094e818462000807565b905092915050565b60006020820190508181036000830152620009718162000848565b9050919050565b6000602082019050818103600083015262000993816200086f565b9050919050565b60006020820190508181036000830152620009b58162000896565b9050919050565b6000604082019050620009d36000830185620008bd565b620009e26020830184620008bd565b9392505050565b6000604051905090565b600081519050919050565b600081519050919050565b600082825260208201905092915050565b600082825260208201905092915050565b600062000a388262000ae8565b915062000a458362000ae8565b9250827fffffffffffffffffffffffffffffffffffffffffffffffffffffffffffffffff0382111562000a7d5762000a7c62000b94565b5b828201905092915050565b600062000a958262000ac8565b9050919050565b60007fffffffff0000000000000000000000000000000000000000000000000000000082169050919050565b600073ffffffffffffffffffffffffffffffffffffffff82169050919050565b6000819050919050565b60005b8381101562000b1257808201518184015260208101905062000af5565b8381111562000b22576000848401525b50505050565b6000600282049050600182168062000b4157607f821691505b6020821081141562000b585762000b5762000bc3565b5b50919050565b62000b698262000c46565b810181811067ffffffffffffffff8211171562000b8b5762000b8a62000bf2565b5b80604052505050565b7f4e487b7100000000000000000000000000000000000000000000000000000000600052601160045260246000fd5b7f4e487b7100000000000000000000000000000000000000000000000000000000600052602260045260246000fd5b7f4e487b7100000000000000000000000000000000000000000000000000000000600052604160045260246000fd5b600060033d111562000c435760046000803e62000c4060005162000c57565b90505b90565b6000601f19601f8301169050919050565b60008160e01c9050919050565b7f455243313135353a207472616e7366657220746f206e6f6e204552433131353560008201527f526563656976657220696d706c656d656e746572000000000000000000000000602082015250565b7f455243313135353a204552433131353552656365697665722072656a6563746560008201527f6420746f6b656e73000000000000000000000000000000000000000000000000602082015250565b7f455243313135353a206d696e7420746f20746865207a65726f2061646472657360008201527f7300000000000000000000000000000000000000000000000000000000000000602082015250565b600060443d101562000d635762000df0565b62000d6d620009e9565b60043d036004823e80513d602482011167ffffffffffffffff8211171562000d9757505062000df0565b808201805167ffffffffffffffff81111562000db7575050505062000df0565b80602083010160043d03850181111562000dd657505050505062000df0565b62000de78260200185018662000b5e565b82955050505050505b90565b62000dfe8162000a9c565b811462000e0a57600080fd5b50565b6130988062000e1d6000396000f3fe608060405234801561001057600080fd5b50600436106100ff5760003560e01c8063715018a611610097578063a22cb46511610066578063a22cb46514610288578063e985e9c5146102a4578063f242432a146102d4578063f2fde38b146102f0576100ff565b8063715018a614610224578063812cee531461022e5780638da5cb5b1461024c57806395d89b411461026a576100ff565b8063156e29f6116100d3578063156e29f6146101b25780632eb2c2d6146101ce5780634bb278f3146101ea5780634e1273f4146101f4576100ff565b8062fdd58e1461010457806301ffc9a71461013457806306fdde03146101645780630e89341c14610182575b600080fd5b61011e60048036038101906101199190611fcf565b61030c565b60405161012b9190612782565b60405180910390f35b61014e600480360381019061014991906120c6565b6103d5565b60405161015b9190612585565b60405180910390f35b61016c6104b7565b60405161017991906125a0565b60405180910390f35b61019c60048036038101906101979190612118565b610545565b6040516101a991906125a0565b60405180910390f35b6101cc60048036038101906101c7919061200b565b6105d9565b005b6101e860048036038101906101e39190611e45565b610675565b005b6101f2610716565b005b61020e6004803603810190610209919061205a565b6107e0565b60405161021b919061252c565b60405180910390f35b61022c610991565b005b610236610a19565b6040516102439190612782565b60405180910390f35b610254610a1e565b604051610261919061244f565b60405180910390f35b610272610a48565b60405161027f91906125a0565b60405180910390f35b6102a2600480360381019061029d9190611f93565b610ad6565b005b6102be60048036038101906102b99190611e09565b610c57565b6040516102cb9190612585565b60405180910390f35b6102ee60048036038101906102e99190611f04565b610ceb565b005b61030a60048036038101906103059190611de0565b610d8c565b005b60008073ffffffffffffffffffffffffffffffffffffffff168373ffffffffffffffffffffffffffffffffffffffff16141561037d576040517f08c379a000000000000000000000000000000000000000000000000000000000815260040161037490612602565b60405180910390fd5b60008083815260200190815260200160002060008473ffffffffffffffffffffffffffffffffffffffff1673ffffffffffffffffffffffffffffffffffffffff16815260200190815260200160002054905092915050565b60007fd9b67a26000000000000000000000000000000000000000000000000000000007bffffffffffffffffffffffffffffffffffffffffffffffffffffffff1916827bffffffffffffffffffffffffffffffffffffffffffffffffffffffff191614806104a057507f0e89341c000000000000000000000000000000000000000000000000000000007bffffffffffffffffffffffffffffffffffffffffffffffffffffffff1916827bffffffffffffffffffffffffffffffffffffffffffffffffffffffff1916145b806104b057506104af82610e97565b5b9050919050565b600480546104c4906129f1565b80601f01602080910402602001604051908101604052809291908181526020018280546104f0906129f1565b801561053d5780601f106105125761010080835404028352916020019161053d565b820191906000526020600020905b81548152906001019060200180831161052057829003601f168201915b505050505081565b606060028054610554906129f1565b80601f0160208091040260200160405190810160405280929190818152602001828054610580906129f1565b80156105cd5780601f106105a2576101008083540402835291602001916105cd565b820191906000526020600020905b8154815290600101906020018083116105b057829003601f168201915b50505050509050919050565b6105e1610f01565b73ffffffffffffffffffffffffffffffffffffffff166105ff610a1e565b73ffffffffffffffffffffffffffffffffffffffff1614610655576040517f08c379a000000000000000000000000000000000000000000000000000000000815260040161064c906126c2565b60405180910390fd5b61067083838360405180602001604052806000815250610f09565b505050565b61067d610f01565b73ffffffffffffffffffffffffffffffffffffffff168573ffffffffffffffffffffffffffffffffffffffff1614806106c357506106c2856106bd610f01565b610c57565b5b610702576040517f08c379a00000000000000000000000000000000000000000000000000000000081526004016106f990612682565b60405180910390fd5b61070f858585858561109f565b5050505050565b61071e610f01565b73ffffffffffffffffffffffffffffffffffffffff1661073c610a1e565b73ffffffffffffffffffffffffffffffffffffffff1614610792576040517f08c379a0000000000000000000000000000000000000000000000000000000008152600401610789906126c2565b60405180910390fd5b7fd4a40fce7d620d10b8b224f48f479338bf8eb2d3ff1b7581ab29c4ebc13459a46040516107bf906126e2565b60405180910390a13373ffffffffffffffffffffffffffffffffffffffff16ff5b60608151835114610826576040517f08c379a000000000000000000000000000000000000000000000000000000000815260040161081d90612722565b60405180910390fd5b6000835167ffffffffffffffff811115610869577f4e487b7100000000000000000000000000000000000000000000000000000000600052604160045260246000fd5b6040519080825280602002602001820160405280156108975781602001602082028036833780820191505090505b50905060005b8451811015610986576109308582815181106108e2577f4e487b7100000000000000000000000000000000000000000000000000000000600052603260045260246000fd5b6020026020010151858381518110610923577f4e487b7100000000000000000000000000000000000000000000000000000000600052603260045260246000fd5b602002602001015161030c565b828281518110610969577f4e487b7100000000000000000000000000000000000000000000000000000000600052603260045260246000fd5b6020026020010181815250508061097f90612a54565b905061089d565b508091505092915050565b610999610f01565b73ffffffffffffffffffffffffffffffffffffffff166109b7610a1e565b73ffffffffffffffffffffffffffffffffffffffff1614610a0d576040517f08c379a0000000000000000000000000000000000000000000000000000000008152600401610a04906126c2565b60405180910390fd5b610a1760006113ff565b565b600081565b6000600360009054906101000a900473ffffffffffffffffffffffffffffffffffffffff16905090565b60058054610a55906129f1565b80601f0160208091040260200160405190810160405280929190818152602001828054610a81906129f1565b8015610ace5780601f10610aa357610100808354040283529160200191610ace565b820191906000526020600020905b815481529060010190602001808311610ab157829003601f168201915b505050505081565b8173ffffffffffffffffffffffffffffffffffffffff16610af5610f01565b73ffffffffffffffffffffffffffffffffffffffff161415610b4c576040517f08c379a0000000000000000000000000000000000000000000000000000000008152600401610b4390612702565b60405180910390fd5b8060016000610b59610f01565b73ffffffffffffffffffffffffffffffffffffffff1673ffffffffffffffffffffffffffffffffffffffff16815260200190815260200160002060008473ffffffffffffffffffffffffffffffffffffffff1673ffffffffffffffffffffffffffffffffffffffff16815260200190815260200160002060006101000a81548160ff0219169083151502179055508173ffffffffffffffffffffffffffffffffffffffff16610c06610f01565b73ffffffffffffffffffffffffffffffffffffffff167f17307eab39ab6107e8899845ad3d59bd9653f200f220920489ca2b5937696c3183604051610c4b9190612585565b60405180910390a35050565b6000600160008473ffffffffffffffffffffffffffffffffffffffff1673ffffffffffffffffffffffffffffffffffffffff16815260200190815260200160002060008373ffffffffffffffffffffffffffffffffffffffff1673ffffffffffffffffffffffffffffffffffffffff16815260200190815260200160002060009054906101000a900460ff16905092915050565b610cf3610f01565b73ffffffffffffffffffffffffffffffffffffffff168573ffffffffffffffffffffffffffffffffffffffff161480610d395750610d3885610d33610f01565b610c57565b5b610d78576040517f08c379a0000000000000000000000000000000000000000000000000000000008152600401610d6f90612642565b60405180910390fd5b610d8585858585856114c5565b5050505050565b610d94610f01565b73ffffffffffffffffffffffffffffffffffffffff16610db2610a1e565b73ffffffffffffffffffffffffffffffffffffffff1614610e08576040517f08c379a0000000000000000000000000000000000000000000000000000000008152600401610dff906126c2565b60405180910390fd5b600073ffffffffffffffffffffffffffffffffffffffff168173ffffffffffffffffffffffffffffffffffffffff161415610e78576040517f08c379a0000000000000000000000000000000000000000000000000000000008152600401610e6f90612622565b60405180910390fd5b610e81816113ff565b50565b600080823b905060008111915050919050565b60007f01ffc9a7000000000000000000000000000000000000000000000000000000007bffffffffffffffffffffffffffffffffffffffffffffffffffffffff1916827bffffffffffffffffffffffffffffffffffffffffffffffffffffffff1916149050919050565b600033905090565b600073ffffffffffffffffffffffffffffffffffffffff168473ffffffffffffffffffffffffffffffffffffffff161415610f79576040517f08c379a0000000000000000000000000000000000000000000000000000000008152600401610f7090612762565b60405180910390fd5b6000610f83610f01565b9050610fa481600087610f9588611747565b610f9e88611747565b8761180d565b8260008086815260200190815260200160002060008773ffffffffffffffffffffffffffffffffffffffff1673ffffffffffffffffffffffffffffffffffffffff168152602001908152602001600020600082825461100391906128e5565b925050819055508473ffffffffffffffffffffffffffffffffffffffff16600073ffffffffffffffffffffffffffffffffffffffff168273ffffffffffffffffffffffffffffffffffffffff167fc3d58168c5ae7397731d063d5bbf3d657854427343f4c083240f7aacaa2d0f62878760405161108192919061279d565b60405180910390a461109881600087878787611815565b5050505050565b81518351146110e3576040517f08c379a00000000000000000000000000000000000000000000000000000000081526004016110da90612742565b60405180910390fd5b600073ffffffffffffffffffffffffffffffffffffffff168473ffffffffffffffffffffffffffffffffffffffff161415611153576040517f08c379a000000000000000000000000000000000000000000000000000000000815260040161114a90612662565b60405180910390fd5b600061115d610f01565b905061116d81878787878761180d565b60005b845181101561136a5760008582815181106111b4577f4e487b7100000000000000000000000000000000000000000000000000000000600052603260045260246000fd5b6020026020010151905060008583815181106111f9577f4e487b7100000000000000000000000000000000000000000000000000000000600052603260045260246000fd5b60200260200101519050600080600084815260200190815260200160002060008b73ffffffffffffffffffffffffffffffffffffffff1673ffffffffffffffffffffffffffffffffffffffff1681526020019081526020016000205490508181101561129a576040517f08c379a0000000000000000000000000000000000000000000000000000000008152600401611291906126a2565b60405180910390fd5b81810360008085815260200190815260200160002060008c73ffffffffffffffffffffffffffffffffffffffff1673ffffffffffffffffffffffffffffffffffffffff168152602001908152602001600020819055508160008085815260200190815260200160002060008b73ffffffffffffffffffffffffffffffffffffffff1673ffffffffffffffffffffffffffffffffffffffff168152602001908152602001600020600082825461134f91906128e5565b925050819055505050508061136390612a54565b9050611170565b508473ffffffffffffffffffffffffffffffffffffffff168673ffffffffffffffffffffffffffffffffffffffff168273ffffffffffffffffffffffffffffffffffffffff167f4a39dc06d4c0dbc64b70af90fd698a233a518aa5d07e595d983b8c0526c8f7fb87876040516113e192919061254e565b60405180910390a46113f78187878787876119fc565b505050505050565b6000600360009054906101000a900473ffffffffffffffffffffffffffffffffffffffff16905081600360006101000a81548173ffffffffffffffffffffffffffffffffffffffff021916908373ffffffffffffffffffffffffffffffffffffffff1602179055508173ffffffffffffffffffffffffffffffffffffffff168173ffffffffffffffffffffffffffffffffffffffff167f8be0079c531659141344cd1fd0a4f28419497f9722a3daafe3b4186f6b6457e060405160405180910390a35050565b600073ffffffffffffffffffffffffffffffffffffffff168473ffffffffffffffffffffffffffffffffffffffff161415611535576040517f08c379a000000000000000000000000000000000000000000000000000000000815260040161152c90612662565b60405180910390fd5b600061153f610f01565b905061155f81878761155088611747565b61155988611747565b8761180d565b600080600086815260200190815260200160002060008873ffffffffffffffffffffffffffffffffffffffff1673ffffffffffffffffffffffffffffffffffffffff168152602001908152602001600020549050838110156115f6576040517f08c379a00000000000000000000000000000000000000000000000000000000081526004016115ed906126a2565b60405180910390fd5b83810360008087815260200190815260200160002060008973ffffffffffffffffffffffffffffffffffffffff1673ffffffffffffffffffffffffffffffffffffffff168152602001908152602001600020819055508360008087815260200190815260200160002060008873ffffffffffffffffffffffffffffffffffffffff1673ffffffffffffffffffffffffffffffffffffffff16815260200190815260200160002060008282546116ab91906128e5565b925050819055508573ffffffffffffffffffffffffffffffffffffffff168773ffffffffffffffffffffffffffffffffffffffff168373ffffffffffffffffffffffffffffffffffffffff167fc3d58168c5ae7397731d063d5bbf3d657854427343f4c083240f7aacaa2d0f62888860405161172892919061279d565b60405180910390a461173e828888888888611815565b50505050505050565b60606000600167ffffffffffffffff81111561178c577f4e487b7100000000000000000000000000000000000000000000000000000000600052604160045260246000fd5b6040519080825280602002602001820160405280156117ba5781602001602082028036833780820191505090505b50905082816000815181106117f8577f4e487b7100000000000000000000000000000000000000000000000000000000600052603260045260246000fd5b60200260200101818152505080915050919050565b505050505050565b6118348473ffffffffffffffffffffffffffffffffffffffff16610e84565b156119f4578373ffffffffffffffffffffffffffffffffffffffff1663f23a6e6187878686866040518663ffffffff1660e01b815260040161187a9594939291906124d2565b602060405180830381600087803b15801561189457600080fd5b505af19250505080156118c557506040513d601f19601f820116820180604052508101906118c291906120ef565b60015b61196b576118d1612b2a565b806308c379a0141561192e57506118e6612f70565b806118f15750611930565b806040517f08c379a000000000000000000000000000000000000000000000000000000000815260040161192591906125a0565b60405180910390fd5b505b6040517f08c379a0000000000000000000000000000000000000000000000000000000008152600401611962906125c2565b60405180910390fd5b63f23a6e6160e01b7bffffffffffffffffffffffffffffffffffffffffffffffffffffffff1916817bffffffffffffffffffffffffffffffffffffffffffffffffffffffff1916146119f2576040517f08c379a00000000000000000000000000000000000000000000000000000000081526004016119e9906125e2565b60405180910390fd5b505b505050505050565b611a1b8473ffffffffffffffffffffffffffffffffffffffff16610e84565b15611bdb578373ffffffffffffffffffffffffffffffffffffffff1663bc197c8187878686866040518663ffffffff1660e01b8152600401611a6195949392919061246a565b602060405180830381600087803b158015611a7b57600080fd5b505af1925050508015611aac57506040513d601f19601f82011682018060405250810190611aa991906120ef565b60015b611b5257611ab8612b2a565b806308c379a01415611b155750611acd612f70565b80611ad85750611b17565b806040517f08c379a0000000000000000000000000000000000000000000000000000000008152600401611b0c91906125a0565b60405180910390fd5b505b6040517f08c379a0000000000000000000000000000000000000000000000000000000008152600401611b49906125c2565b60405180910390fd5b63bc197c8160e01b7bffffffffffffffffffffffffffffffffffffffffffffffffffffffff1916817bffffffffffffffffffffffffffffffffffffffffffffffffffffffff191614611bd9576040517f08c379a0000000000000000000000000000000000000000000000000000000008152600401611bd0906125e2565b60405180910390fd5b505b505050505050565b6000611bf6611bf1846127eb565b6127c6565b90508083825260208201905082856020860282011115611c1557600080fd5b60005b85811015611c455781611c2b8882611cf9565b845260208401935060208301925050600181019050611c18565b5050509392505050565b6000611c62611c5d84612817565b6127c6565b90508083825260208201905082856020860282011115611c8157600080fd5b60005b85811015611cb15781611c978882611dcb565b845260208401935060208301925050600181019050611c84565b5050509392505050565b6000611cce611cc984612843565b6127c6565b905082815260208101848484011115611ce657600080fd5b611cf18482856129af565b509392505050565b600081359050611d0881613006565b92915050565b600082601f830112611d1f57600080fd5b8135611d2f848260208601611be3565b91505092915050565b600082601f830112611d4957600080fd5b8135611d59848260208601611c4f565b91505092915050565b600081359050611d718161301d565b92915050565b600081359050611d8681613034565b92915050565b600081519050611d9b81613034565b92915050565b600082601f830112611db257600080fd5b8135611dc2848260208601611cbb565b91505092915050565b600081359050611dda8161304b565b92915050565b600060208284031215611df257600080fd5b6000611e0084828501611cf9565b91505092915050565b60008060408385031215611e1c57600080fd5b6000611e2a85828601611cf9565b9250506020611e3b85828601611cf9565b9150509250929050565b600080600080600060a08688031215611e5d57600080fd5b6000611e6b88828901611cf9565b9550506020611e7c88828901611cf9565b945050604086013567ffffffffffffffff811115611e9957600080fd5b611ea588828901611d38565b935050606086013567ffffffffffffffff811115611ec257600080fd5b611ece88828901611d38565b925050608086013567ffffffffffffffff811115611eeb57600080fd5b611ef788828901611da1565b9150509295509295909350565b600080600080600060a08688031215611f1c57600080fd5b6000611f2a88828901611cf9565b9550506020611f3b88828901611cf9565b9450506040611f4c88828901611dcb565b9350506060611f5d88828901611dcb565b925050608086013567ffffffffffffffff811115611f7a57600080fd5b611f8688828901611da1565b9150509295509295909350565b60008060408385031215611fa657600080fd5b6000611fb485828601611cf9565b9250506020611fc585828601611d62565b9150509250929050565b60008060408385031215611fe257600080fd5b6000611ff085828601611cf9565b925050602061200185828601611dcb565b9150509250929050565b60008060006060848603121561202057600080fd5b600061202e86828701611cf9565b935050602061203f86828701611dcb565b925050604061205086828701611dcb565b9150509250925092565b6000806040838503121561206d57600080fd5b600083013567ffffffffffffffff81111561208757600080fd5b61209385828601611d0e565b925050602083013567ffffffffffffffff8111156120b057600080fd5b6120bc85828601611d38565b9150509250929050565b6000602082840312156120d857600080fd5b60006120e684828501611d77565b91505092915050565b60006020828403121561210157600080fd5b600061210f84828501611d8c565b91505092915050565b60006020828403121561212a57600080fd5b600061213884828501611dcb565b91505092915050565b600061214d8383612431565b60208301905092915050565b6121628161293b565b82525050565b600061217382612884565b61217d81856128b2565b935061218883612874565b8060005b838110156121b95781516121a08882612141565b97506121ab836128a5565b92505060018101905061218c565b5085935050505092915050565b6121cf8161294d565b82525050565b60006121e08261288f565b6121ea81856128c3565b93506121fa8185602086016129be565b61220381612b4c565b840191505092915050565b60006122198261289a565b61222381856128d4565b93506122338185602086016129be565b61223c81612b4c565b840191505092915050565b60006122546034836128d4565b915061225f82612b6a565b604082019050919050565b60006122776028836128d4565b915061228282612bb9565b604082019050919050565b600061229a602b836128d4565b91506122a582612c08565b604082019050919050565b60006122bd6026836128d4565b91506122c882612c57565b604082019050919050565b60006122e06029836128d4565b91506122eb82612ca6565b604082019050919050565b60006123036025836128d4565b915061230e82612cf5565b604082019050919050565b60006123266032836128d4565b915061233182612d44565b604082019050919050565b6000612349602a836128d4565b915061235482612d93565b604082019050919050565b600061236c6020836128d4565b915061237782612de2565b602082019050919050565b600061238f601c836128d4565b915061239a82612e0b565b602082019050919050565b60006123b26029836128d4565b91506123bd82612e34565b604082019050919050565b60006123d56029836128d4565b91506123e082612e83565b604082019050919050565b60006123f86028836128d4565b915061240382612ed2565b604082019050919050565b600061241b6021836128d4565b915061242682612f21565b604082019050919050565b61243a816129a5565b82525050565b612449816129a5565b82525050565b60006020820190506124646000830184612159565b92915050565b600060a08201905061247f6000830188612159565b61248c6020830187612159565b818103604083015261249e8186612168565b905081810360608301526124b28185612168565b905081810360808301526124c681846121d5565b90509695505050505050565b600060a0820190506124e76000830188612159565b6124f46020830187612159565b6125016040830186612440565b61250e6060830185612440565b818103608083015261252081846121d5565b90509695505050505050565b600060208201905081810360008301526125468184612168565b905092915050565b600060408201905081810360008301526125688185612168565b9050818103602083015261257c8184612168565b90509392505050565b600060208201905061259a60008301846121c6565b92915050565b600060208201905081810360008301526125ba818461220e565b905092915050565b600060208201905081810360008301526125db81612247565b9050919050565b600060208201905081810360008301526125fb8161226a565b9050919050565b6000602082019050818103600083015261261b8161228d565b9050919050565b6000602082019050818103600083015261263b816122b0565b9050919050565b6000602082019050818103600083015261265b816122d3565b9050919050565b6000602082019050818103600083015261267b816122f6565b9050919050565b6000602082019050818103600083015261269b81612319565b9050919050565b600060208201905081810360008301526126bb8161233c565b9050919050565b600060208201905081810360008301526126db8161235f565b9050919050565b600060208201905081810360008301526126fb81612382565b9050919050565b6000602082019050818103600083015261271b816123a5565b9050919050565b6000602082019050818103600083015261273b816123c8565b9050919050565b6000602082019050818103600083015261275b816123eb565b9050919050565b6000602082019050818103600083015261277b8161240e565b9050919050565b60006020820190506127976000830184612440565b92915050565b60006040820190506127b26000830185612440565b6127bf6020830184612440565b9392505050565b60006127d06127e1565b90506127dc8282612a23565b919050565b6000604051905090565b600067ffffffffffffffff82111561280657612805612afb565b5b602082029050602081019050919050565b600067ffffffffffffffff82111561283257612831612afb565b5b602082029050602081019050919050565b600067ffffffffffffffff82111561285e5761285d612afb565b5b61286782612b4c565b9050602081019050919050565b6000819050602082019050919050565b600081519050919050565b600081519050919050565b600081519050919050565b6000602082019050919050565b600082825260208201905092915050565b600082825260208201905092915050565b600082825260208201905092915050565b60006128f0826129a5565b91506128fb836129a5565b9250827fffffffffffffffffffffffffffffffffffffffffffffffffffffffffffffffff038211156129305761292f612a9d565b5b828201905092915050565b600061294682612985565b9050919050565b60008115159050919050565b60007fffffffff0000000000000000000000000000000000000000000000000000000082169050919050565b600073ffffffffffffffffffffffffffffffffffffffff82169050919050565b6000819050919050565b82818337600083830152505050565b60005b838110156129dc5780820151818401526020810190506129c1565b838111156129eb576000848401525b50505050565b60006002820490506001821680612a0957607f821691505b60208210811415612a1d57612a1c612acc565b5b50919050565b612a2c82612b4c565b810181811067ffffffffffffffff82111715612a4b57612a4a612afb565b5b80604052505050565b6000612a5f826129a5565b91507fffffffffffffffffffffffffffffffffffffffffffffffffffffffffffffffff821415612a9257612a91612a9d565b5b600182019050919050565b7f4e487b7100000000000000000000000000000000000000000000000000000000600052601160045260246000fd5b7f4e487b7100000000000000000000000000000000000000000000000000000000600052602260045260246000fd5b7f4e487b7100000000000000000000000000000000000000000000000000000000600052604160045260246000fd5b600060033d1115612b495760046000803e612b46600051612b5d565b90505b90565b6000601f19601f8301169050919050565b60008160e01c9050919050565b7f455243313135353a207472616e7366657220746f206e6f6e204552433131353560008201527f526563656976657220696d706c656d656e746572000000000000000000000000602082015250565b7f455243313135353a204552433131353552656365697665722072656a6563746560008201527f6420746f6b656e73000000000000000000000000000000000000000000000000602082015250565b7f455243313135353a2062616c616e636520717565727920666f7220746865207a60008201527f65726f2061646472657373000000000000000000000000000000000000000000602082015250565b7f4f776e61626c653a206e6577206f776e657220697320746865207a65726f206160008201527f6464726573730000000000000000000000000000000000000000000000000000602082015250565b7f455243313135353a2063616c6c6572206973206e6f74206f776e6572206e6f7260008201527f20617070726f7665640000000000000000000000000000000000000000000000602082015250565b7f455243313135353a207472616e7366657220746f20746865207a65726f20616460008201527f6472657373000000000000000000000000000000000000000000000000000000602082015250565b7f455243313135353a207472616e736665722063616c6c6572206973206e6f742060008201527f6f776e6572206e6f7220617070726f7665640000000000000000000000000000602082015250565b7f455243313135353a20696e73756666696369656e742062616c616e636520666f60008201527f72207472616e7366657200000000000000000000000000000000000000000000602082015250565b7f4f776e61626c653a2063616c6c6572206973206e6f7420746865206f776e6572600082015250565b7f436f6e74726163742066696e616c7a6174696f6e2063616c6c65642e00000000600082015250565b7f455243313135353a2073657474696e6720617070726f76616c2073746174757360008201527f20666f722073656c660000000000000000000000000000000000000000000000602082015250565b7f455243313135353a206163636f756e747320616e6420696473206c656e67746860008201527f206d69736d617463680000000000000000000000000000000000000000000000602082015250565b7f455243313135353a2069647320616e6420616d6f756e7473206c656e6774682060008201527f6d69736d61746368000000000000000000000000000000000000000000000000602082015250565b7f455243313135353a206d696e7420746f20746865207a65726f2061646472657360008201527f7300000000000000000000000000000000000000000000000000000000000000602082015250565b600060443d1015612f8057613003565b612f886127e1565b60043d036004823e80513d602482011167ffffffffffffffff82111715612fb0575050613003565b808201805167ffffffffffffffff811115612fce5750505050613003565b80602083010160043d038501811115612feb575050505050613003565b612ffa82602001850186612a23565b82955050505050505b90565b61300f8161293b565b811461301a57600080fd5b50565b6130268161294d565b811461303157600080fd5b50565b61303d81612959565b811461304857600080fd5b50565b613054816129a5565b811461305f57600080fd5b5056fea26469706673582212209757385b2bd6bcb7d13ba5561a80842a08547d70f58691f3103f47850ac5cb8a64736f6c6343000801003368747470733a2f2f6474726463367565786f33632e6772616e646d6f72616c69732e636f6d2f7b69647d2e6a736f6e",
  "immutableReferences": {},
  "source": "// SPDX-License-Identifier: MIT\npragma solidity >=0.4.22 <0.9.0;\n\nimport \"../node_modules/@openzeppelin/contracts/token/ERC1155/ERC1155.sol\";\nimport \"../node_modules/@openzeppelin/contracts/access/Ownable.sol\";\n\ncontract NftFactory is ERC1155, Ownable {\n\n\n  string public name = \"IAE Degree NFT\";\n  string public symbol = \"IAENFT\";\n\n  uint256 public constant IAEMBA = 0;\n\n  event contractfinalization(string msg);\n  constructor() ERC1155(\"https://dtrdc6uexo3c.grandmoralis.com/{id}.json\")  {\n    _mint(msg.sender, IAEMBA, 1, \"\");\n  }\n\n  function mint(\n        address account,\n        uint256 id,\n        uint256 amount\n        \n  ) public onlyOwner {\n        _mint(account,id,amount,\"\");\n  }\n\n\n  function finalize () public onlyOwner {\n\n    emit contractfinalization(\"Contract finalzation called.\");\n    selfdestruct(payable(msg.sender));\n  }\n  \n\n  \n}\n",
  "sourcePath": "/home/fribas/solidity/truffle/IAE_NFT/contracts/NftFactory.sol",
  "compiler": {
    "name": "solc",
    "version": "0.8.1+commit.df193b15.Emscripten.clang"
  },
  "schemaVersion": "3.4.1",
  "updatedAt": "2021-10-12T20:29:50.032Z",
  "networkType": "ethereum",
  "devdoc": {
    "kind": "dev",
    "methods": {
      "balanceOf(address,uint256)": {
        "details": "See {IERC1155-balanceOf}. Requirements: - `account` cannot be the zero address."
      },
      "balanceOfBatch(address[],uint256[])": {
        "details": "See {IERC1155-balanceOfBatch}. Requirements: - `accounts` and `ids` must have the same length."
      },
      "isApprovedForAll(address,address)": {
        "details": "See {IERC1155-isApprovedForAll}."
      },
      "owner()": {
        "details": "Returns the address of the current owner."
      },
      "renounceOwnership()": {
        "details": "Leaves the contract without owner. It will not be possible to call `onlyOwner` functions anymore. Can only be called by the current owner. NOTE: Renouncing ownership will leave the contract without an owner, thereby removing any functionality that is only available to the owner."
      },
      "safeBatchTransferFrom(address,address,uint256[],uint256[],bytes)": {
        "details": "See {IERC1155-safeBatchTransferFrom}."
      },
      "safeTransferFrom(address,address,uint256,uint256,bytes)": {
        "details": "See {IERC1155-safeTransferFrom}."
      },
      "setApprovalForAll(address,bool)": {
        "details": "See {IERC1155-setApprovalForAll}."
      },
      "supportsInterface(bytes4)": {
        "details": "See {IERC165-supportsInterface}."
      },
      "transferOwnership(address)": {
        "details": "Transfers ownership of the contract to a new account (`newOwner`). Can only be called by the current owner."
      },
      "uri(uint256)": {
        "details": "See {IERC1155MetadataURI-uri}. This implementation returns the same URI for *all* token types. It relies on the token type ID substitution mechanism https://eips.ethereum.org/EIPS/eip-1155#metadata[defined in the EIP]. Clients calling this function must replace the `\\{id\\}` substring with the actual token type ID."
      }
    },
    "version": 1
  },
  "userdoc": {
    "kind": "user",
    "methods": {},
    "version": 1
  }
}